{
  "contractName": "supplyChain",
  "abi": [
    {
      "constant": true,
      "inputs": [
        {
          "name": "",
          "type": "uint32"
        },
        {
          "name": "",
          "type": "uint256"
        }
      ],
      "name": "productTrack",
      "outputs": [
        {
          "name": "",
          "type": "uint32"
        }
      ],
      "payable": false,
      "stateMutability": "view",
      "type": "function",
      "signature": "0x1a074802"
    },
    {
      "constant": true,
      "inputs": [
        {
          "name": "",
          "type": "uint32"
        }
      ],
      "name": "participants",
      "outputs": [
        {
          "name": "userName",
          "type": "string"
        },
        {
          "name": "password",
          "type": "string"
        },
        {
          "name": "participantType",
          "type": "string"
        },
        {
          "name": "participantAddress",
          "type": "address"
        }
      ],
      "payable": false,
      "stateMutability": "view",
      "type": "function",
      "signature": "0x7d0a9ac9"
    },
    {
      "constant": true,
      "inputs": [
        {
          "name": "",
          "type": "uint32"
        }
      ],
      "name": "ownerships",
      "outputs": [
        {
          "name": "productId",
          "type": "uint32"
        },
        {
          "name": "ownerId",
          "type": "uint32"
        },
        {
          "name": "trxTimeStamp",
          "type": "uint32"
        },
        {
          "name": "productOwner",
          "type": "address"
        }
      ],
      "payable": false,
      "stateMutability": "view",
      "type": "function",
      "signature": "0x81e15610"
    },
    {
      "constant": true,
      "inputs": [],
      "name": "owner_id",
      "outputs": [
        {
          "name": "",
          "type": "uint32"
        }
      ],
      "payable": false,
      "stateMutability": "view",
      "type": "function",
      "signature": "0x8f5ebf71"
    },
    {
      "constant": true,
      "inputs": [
        {
          "name": "",
          "type": "uint32"
        }
      ],
      "name": "products",
      "outputs": [
        {
          "name": "modelNumber",
          "type": "string"
        },
        {
          "name": "partNumber",
          "type": "string"
        },
        {
          "name": "serialNumber",
          "type": "string"
        },
        {
          "name": "productOwner",
          "type": "address"
        },
        {
          "name": "cost",
          "type": "uint32"
        },
        {
          "name": "mfgTimeStamp",
          "type": "uint32"
        }
      ],
      "payable": false,
      "stateMutability": "view",
      "type": "function",
      "signature": "0xbf712fd6"
    },
    {
      "constant": true,
      "inputs": [],
      "name": "product_id",
      "outputs": [
        {
          "name": "",
          "type": "uint32"
        }
      ],
      "payable": false,
      "stateMutability": "view",
      "type": "function",
      "signature": "0xeab0a479"
    },
    {
      "constant": true,
      "inputs": [],
      "name": "participant_id",
      "outputs": [
        {
          "name": "",
          "type": "uint32"
        }
      ],
      "payable": false,
      "stateMutability": "view",
      "type": "function",
      "signature": "0xfc2da910"
    },
    {
      "anonymous": false,
      "inputs": [
        {
          "indexed": true,
          "name": "productId",
          "type": "uint32"
        }
      ],
      "name": "TransferOwnership",
      "type": "event",
      "signature": "0xa5470ac012c6e9dc500e62b1d3de0de58db49b3ab7cfebbfb126d9abd854199b"
    },
    {
      "constant": false,
      "inputs": [
        {
          "name": "_name",
          "type": "string"
        },
        {
          "name": "_pass",
          "type": "string"
        },
        {
          "name": "_pAdd",
          "type": "address"
        },
        {
          "name": "_pType",
          "type": "string"
        }
      ],
      "name": "addParticipant",
      "outputs": [
        {
          "name": "",
          "type": "uint32"
        }
      ],
      "payable": false,
      "stateMutability": "nonpayable",
      "type": "function",
      "signature": "0xebf43a7e"
    },
    {
      "constant": true,
      "inputs": [
        {
          "name": "_participant_id",
          "type": "uint32"
        }
      ],
      "name": "getParticipant",
      "outputs": [
        {
          "name": "",
          "type": "string"
        },
        {
          "name": "",
          "type": "address"
        },
        {
          "name": "",
          "type": "string"
        }
      ],
      "payable": false,
      "stateMutability": "view",
      "type": "function",
      "signature": "0x3b26a65d"
    },
    {
      "constant": false,
      "inputs": [
        {
          "name": "_ownerId",
          "type": "uint32"
        },
        {
          "name": "_modelNumber",
          "type": "string"
        },
        {
          "name": "_partNumber",
          "type": "string"
        },
        {
          "name": "_serialNumber",
          "type": "string"
        },
        {
          "name": "_productCost",
          "type": "uint32"
        }
      ],
      "name": "addProduct",
      "outputs": [
        {
          "name": "",
          "type": "uint32"
        }
      ],
      "payable": false,
      "stateMutability": "nonpayable",
      "type": "function",
      "signature": "0x50632104"
    },
    {
      "constant": true,
      "inputs": [
        {
          "name": "_productId",
          "type": "uint32"
        }
      ],
      "name": "getProduct",
      "outputs": [
        {
          "name": "",
          "type": "string"
        },
        {
          "name": "",
          "type": "string"
        },
        {
          "name": "",
          "type": "string"
        },
        {
          "name": "",
          "type": "uint32"
        },
        {
          "name": "",
          "type": "address"
        },
        {
          "name": "",
          "type": "uint32"
        }
      ],
      "payable": false,
      "stateMutability": "view",
      "type": "function",
      "signature": "0xa638ac49"
    },
    {
      "constant": false,
      "inputs": [
        {
          "name": "_user1Id",
          "type": "uint32"
        },
        {
          "name": "_user2Id",
          "type": "uint32"
        },
        {
          "name": "_prodId",
          "type": "uint32"
        }
      ],
      "name": "newOwner",
      "outputs": [
        {
          "name": "",
          "type": "bool"
        }
      ],
      "payable": false,
      "stateMutability": "nonpayable",
      "type": "function",
      "signature": "0x2e9d5284"
    },
    {
      "constant": true,
      "inputs": [
        {
          "name": "_prodId",
          "type": "uint32"
        }
      ],
      "name": "getProvenance",
      "outputs": [
        {
          "name": "",
          "type": "uint32[]"
        }
      ],
      "payable": false,
      "stateMutability": "view",
      "type": "function",
      "signature": "0xc8569565"
    },
    {
      "constant": true,
      "inputs": [
        {
          "name": "_regId",
          "type": "uint32"
        }
      ],
      "name": "getOwnership",
      "outputs": [
        {
          "name": "",
          "type": "uint32"
        },
        {
          "name": "",
          "type": "uint32"
        },
        {
          "name": "",
          "type": "address"
        },
        {
          "name": "",
          "type": "uint32"
        }
      ],
      "payable": false,
      "stateMutability": "view",
      "type": "function",
      "signature": "0xdf6d23f1"
    },
    {
      "constant": true,
      "inputs": [
        {
          "name": "_uid",
          "type": "uint32"
        },
        {
          "name": "_uname",
          "type": "string"
        },
        {
          "name": "_pass",
          "type": "string"
        },
        {
          "name": "_utype",
          "type": "string"
        }
      ],
      "name": "authenticateParticipant",
      "outputs": [
        {
          "name": "",
          "type": "bool"
        }
      ],
      "payable": false,
      "stateMutability": "view",
      "type": "function",
      "signature": "0x721b5743"
    }
  ],
  "bytecode": "0x608060405260008060006101000a81548163ffffffff021916908363ffffffff16021790555060008060046101000a81548163ffffffff021916908363ffffffff16021790555060008060086101000a81548163ffffffff021916908363ffffffff16021790555034801561007357600080fd5b506137d7806100836000396000f3fe6080604052600436106100db576000357c0100000000000000000000000000000000000000000000000000000000900463ffffffff1680631a074802146100e05780632e9d52841461014b5780633b26a65d146101c4578063506321041461031d578063721b5743146105535780637d0a9ac91461077157806381e15610146109365780638f5ebf71146109f0578063a638ac4914610a27578063bf712fd614610c12578063c856956514610dfd578063df6d23f114610e93578063eab0a47914610f4d578063ebf43a7e14610f84578063fc2da910146111ba575b600080fd5b3480156100ec57600080fd5b506101296004803603604081101561010357600080fd5b81019080803563ffffffff169060200190929190803590602001909291905050506111f1565b604051808263ffffffff1663ffffffff16815260200191505060405180910390f35b34801561015757600080fd5b506101aa6004803603606081101561016e57600080fd5b81019080803563ffffffff169060200190929190803563ffffffff169060200190929190803563ffffffff169060200190929190505050611239565b604051808215151515815260200191505060405180910390f35b3480156101d057600080fd5b50610203600480360360208110156101e757600080fd5b81019080803563ffffffff16906020019092919050505061231a565b60405180806020018473ffffffffffffffffffffffffffffffffffffffff1673ffffffffffffffffffffffffffffffffffffffff16815260200180602001838103835286818151815260200191508051906020019080838360005b8381101561027957808201518184015260208101905061025e565b50505050905090810190601f1680156102a65780820380516001836020036101000a031916815260200191505b50838103825284818151815260200191508051906020019080838360005b838110156102df5780820151818401526020810190506102c4565b50505050905090810190601f16801561030c5780820380516001836020036101000a031916815260200191505b509550505050505060405180910390f35b34801561032957600080fd5b50610531600480360360a081101561034057600080fd5b81019080803563ffffffff1690602001909291908035906020019064010000000081111561036d57600080fd5b82018360208201111561037f57600080fd5b803590602001918460018302840111640100000000831117156103a157600080fd5b91908080601f016020809104026020016040519081016040528093929190818152602001838380828437600081840152601f19601f8201169050808301925050505050505091929192908035906020019064010000000081111561040457600080fd5b82018360208201111561041657600080fd5b8035906020019184600183028401116401000000008311171561043857600080fd5b91908080601f016020809104026020016040519081016040528093929190818152602001838380828437600081840152601f19601f8201169050808301925050505050505091929192908035906020019064010000000081111561049b57600080fd5b8201836020820111156104ad57600080fd5b803590602001918460018302840111640100000000831117156104cf57600080fd5b91908080601f016020809104026020016040519081016040528093929190818152602001838380828437600081840152601f19601f820116905080830192505050505050509192919290803563ffffffff1690602001909291905050506124ec565b604051808263ffffffff1663ffffffff16815260200191505060405180910390f35b34801561055f57600080fd5b506107576004803603608081101561057657600080fd5b81019080803563ffffffff169060200190929190803590602001906401000000008111156105a357600080fd5b8201836020820111156105b557600080fd5b803590602001918460018302840111640100000000831117156105d757600080fd5b91908080601f016020809104026020016040519081016040528093929190818152602001838380828437600081840152601f19601f8201169050808301925050505050505091929192908035906020019064010000000081111561063a57600080fd5b82018360208201111561064c57600080fd5b8035906020019184600183028401116401000000008311171561066e57600080fd5b91908080601f016020809104026020016040519081016040528093929190818152602001838380828437600081840152601f19601f820116905080830192505050505050509192919290803590602001906401000000008111156106d157600080fd5b8201836020820111156106e357600080fd5b8035906020019184600183028401116401000000008311171561070557600080fd5b91908080601f016020809104026020016040519081016040528093929190818152602001838380828437600081840152601f19601f8201169050808301925050505050505091929192905050506127e3565b604051808215151515815260200191505060405180910390f35b34801561077d57600080fd5b506107b06004803603602081101561079457600080fd5b81019080803563ffffffff169060200190929190505050612b3c565b604051808060200180602001806020018573ffffffffffffffffffffffffffffffffffffffff1673ffffffffffffffffffffffffffffffffffffffff168152602001848103845288818151815260200191508051906020019080838360005b8381101561082a57808201518184015260208101905061080f565b50505050905090810190601f1680156108575780820380516001836020036101000a031916815260200191505b50848103835287818151815260200191508051906020019080838360005b83811015610890578082015181840152602081019050610875565b50505050905090810190601f1680156108bd5780820380516001836020036101000a031916815260200191505b50848103825286818151815260200191508051906020019080838360005b838110156108f65780820151818401526020810190506108db565b50505050905090810190601f1680156109235780820380516001836020036101000a031916815260200191505b5097505050505050505060405180910390f35b34801561094257600080fd5b506109756004803603602081101561095957600080fd5b81019080803563ffffffff169060200190929190505050612d54565b604051808563ffffffff1663ffffffff1681526020018463ffffffff1663ffffffff1681526020018363ffffffff1663ffffffff1681526020018273ffffffffffffffffffffffffffffffffffffffff1673ffffffffffffffffffffffffffffffffffffffff16815260200194505050505060405180910390f35b3480156109fc57600080fd5b50610a05612dd4565b604051808263ffffffff1663ffffffff16815260200191505060405180910390f35b348015610a3357600080fd5b50610a6660048036036020811015610a4a57600080fd5b81019080803563ffffffff169060200190929190505050612dea565b604051808060200180602001806020018763ffffffff1663ffffffff1681526020018673ffffffffffffffffffffffffffffffffffffffff1673ffffffffffffffffffffffffffffffffffffffff1681526020018563ffffffff1663ffffffff16815260200184810384528a818151815260200191508051906020019080838360005b83811015610b04578082015181840152602081019050610ae9565b50505050905090810190601f168015610b315780820380516001836020036101000a031916815260200191505b50848103835289818151815260200191508051906020019080838360005b83811015610b6a578082015181840152602081019050610b4f565b50505050905090810190601f168015610b975780820380516001836020036101000a031916815260200191505b50848103825288818151815260200191508051906020019080838360005b83811015610bd0578082015181840152602081019050610bb5565b50505050905090810190601f168015610bfd5780820380516001836020036101000a031916815260200191505b50995050505050505050505060405180910390f35b348015610c1e57600080fd5b50610c5160048036036020811015610c3557600080fd5b81019080803563ffffffff1690602001909291905050506130ec565b604051808060200180602001806020018773ffffffffffffffffffffffffffffffffffffffff1673ffffffffffffffffffffffffffffffffffffffff1681526020018663ffffffff1663ffffffff1681526020018563ffffffff1663ffffffff16815260200184810384528a818151815260200191508051906020019080838360005b83811015610cef578082015181840152602081019050610cd4565b50505050905090810190601f168015610d1c5780820380516001836020036101000a031916815260200191505b50848103835289818151815260200191508051906020019080838360005b83811015610d55578082015181840152602081019050610d3a565b50505050905090810190601f168015610d825780820380516001836020036101000a031916815260200191505b50848103825288818151815260200191508051906020019080838360005b83811015610dbb578082015181840152602081019050610da0565b50505050905090810190601f168015610de85780820380516001836020036101000a031916815260200191505b50995050505050505050505060405180910390f35b348015610e0957600080fd5b50610e3c60048036036020811015610e2057600080fd5b81019080803563ffffffff169060200190929190505050613330565b6040518080602001828103825283818151815260200191508051906020019060200280838360005b83811015610e7f578082015181840152602081019050610e64565b505050509050019250505060405180910390f35b348015610e9f57600080fd5b50610ed260048036036020811015610eb657600080fd5b81019080803563ffffffff1690602001909291905050506133d3565b604051808563ffffffff1663ffffffff1681526020018463ffffffff1663ffffffff1681526020018373ffffffffffffffffffffffffffffffffffffffff1673ffffffffffffffffffffffffffffffffffffffff1681526020018263ffffffff1663ffffffff16815260200194505050505060405180910390f35b348015610f5957600080fd5b50610f626134fa565b604051808263ffffffff1663ffffffff16815260200191505060405180910390f35b348015610f9057600080fd5b5061119860048036036080811015610fa757600080fd5b8101908080359060200190640100000000811115610fc457600080fd5b820183602082011115610fd657600080fd5b80359060200191846001830284011164010000000083111715610ff857600080fd5b91908080601f016020809104026020016040519081016040528093929190818152602001838380828437600081840152601f19601f8201169050808301925050505050505091929192908035906020019064010000000081111561105b57600080fd5b82018360208201111561106d57600080fd5b8035906020019184600183028401116401000000008311171561108f57600080fd5b91908080601f016020809104026020016040519081016040528093929190818152602001838380828437600081840152601f19601f820116905080830192505050505050509192919290803573ffffffffffffffffffffffffffffffffffffffff1690602001909291908035906020019064010000000081111561111257600080fd5b82018360208201111561112457600080fd5b8035906020019184600183028401116401000000008311171561114657600080fd5b91908080601f016020809104026020016040519081016040528093929190818152602001838380828437600081840152601f19601f82011690508083019250505050505050919291929050505061350f565b604051808263ffffffff1663ffffffff16815260200191505060405180910390f35b3480156111c657600080fd5b506111cf613660565b604051808263ffffffff1663ffffffff16815260200191505060405180910390f35b60046020528160005260406000208181548110151561120c57fe5b9060005260206000209060089182820401919006600402915091509054906101000a900463ffffffff1681565b600081600160008263ffffffff1663ffffffff16815260200190815260200160002060030160009054906101000a900473ffffffffffffffffffffffffffffffffffffffff1673ffffffffffffffffffffffffffffffffffffffff163373ffffffffffffffffffffffffffffffffffffffff161415156112fc576040517f08c379a0000000000000000000000000000000000000000000000000000000008152600401808060200182810382526000815260200160200191505060405180910390fd5b611304613676565b600260008763ffffffff1663ffffffff16815260200190815260200160002060806040519081016040529081600082018054600181600116156101000203166002900480601f0160208091040260200160405190810160405280929190818152602001828054600181600116156101000203166002900480156113c85780601f1061139d576101008083540402835291602001916113c8565b820191906000526020600020905b8154815290600101906020018083116113ab57829003601f168201915b50505050508152602001600182018054600181600116156101000203166002900480601f01602080910402602001604051908101604052809291908181526020018280546001816001161561010002031660029004801561146a5780601f1061143f5761010080835404028352916020019161146a565b820191906000526020600020905b81548152906001019060200180831161144d57829003601f168201915b50505050508152602001600282018054600181600116156101000203166002900480601f01602080910402602001604051908101604052809291908181526020018280546001816001161561010002031660029004801561150c5780601f106114e15761010080835404028352916020019161150c565b820191906000526020600020905b8154815290600101906020018083116114ef57829003601f168201915b505050505081526020016003820160009054906101000a900473ffffffffffffffffffffffffffffffffffffffff1673ffffffffffffffffffffffffffffffffffffffff1673ffffffffffffffffffffffffffffffffffffffff16815250509050611575613676565b600260008763ffffffff1663ffffffff16815260200190815260200160002060806040519081016040529081600082018054600181600116156101000203166002900480601f0160208091040260200160405190810160405280929190818152602001828054600181600116156101000203166002900480156116395780601f1061160e57610100808354040283529160200191611639565b820191906000526020600020905b81548152906001019060200180831161161c57829003601f168201915b50505050508152602001600182018054600181600116156101000203166002900480601f0160208091040260200160405190810160405280929190818152602001828054600181600116156101000203166002900480156116db5780601f106116b0576101008083540402835291602001916116db565b820191906000526020600020905b8154815290600101906020018083116116be57829003601f168201915b50505050508152602001600282018054600181600116156101000203166002900480601f01602080910402602001604051908101604052809291908181526020018280546001816001161561010002031660029004801561177d5780601f106117525761010080835404028352916020019161177d565b820191906000526020600020905b81548152906001019060200180831161176057829003601f168201915b505050505081526020016003820160009054906101000a900473ffffffffffffffffffffffffffffffffffffffff1673ffffffffffffffffffffffffffffffffffffffff1673ffffffffffffffffffffffffffffffffffffffff16815250509050600080600881819054906101000a900463ffffffff168092919060010191906101000a81548163ffffffff021916908363ffffffff160217905550905060405180807f4d616e7566616374757265720000000000000000000000000000000000000000815250600c019050604051809103902083604001516040516020018082805190602001908083835b60208310151561188e5780518252602082019150602081019050602083039250611869565b6001836020036101000a03801982511681845116808217855250505050505090500191505060405160208183030381529060405280519060200120148015611981575060405180807f537570706c6965720000000000000000000000000000000000000000000000008152506008019050604051809103902082604001516040516020018082805190602001908083835b602083101515611944578051825260208201915060208101905060208303925061191f565b6001836020036101000a03801982511681845116808217855250505050505090500191505060405160208183030381529060405280519060200120145b15611bc05785600360008363ffffffff1663ffffffff16815260200190815260200160002060000160006101000a81548163ffffffff021916908363ffffffff1602179055508160600151600360008363ffffffff1663ffffffff168152602001908152602001600020600001600c6101000a81548173ffffffffffffffffffffffffffffffffffffffff021916908373ffffffffffffffffffffffffffffffffffffffff16021790555086600360008363ffffffff1663ffffffff16815260200190815260200160002060000160046101000a81548163ffffffff021916908363ffffffff16021790555042600360008363ffffffff1663ffffffff16815260200190815260200160002060000160086101000a81548163ffffffff021916908363ffffffff1602179055508160600151600160008863ffffffff1663ffffffff16815260200190815260200160002060030160006101000a81548173ffffffffffffffffffffffffffffffffffffffff021916908373ffffffffffffffffffffffffffffffffffffffff160217905550600460008763ffffffff1663ffffffff16815260200190815260200160002081908060018154018082558091505090600182039060005260206000209060089182820401919006600402909192909190916101000a81548163ffffffff021916908363ffffffff160217905550508563ffffffff167fa5470ac012c6e9dc500e62b1d3de0de58db49b3ab7cfebbfb126d9abd854199b60405160405180910390a260019450505050612312565b60405180807f537570706c6965720000000000000000000000000000000000000000000000008152506008019050604051809103902083604001516040516020018082805190602001908083835b602083101515611c335780518252602082019150602081019050602083039250611c0e565b6001836020036101000a03801982511681845116808217855250505050505090500191505060405160208183030381529060405280519060200120148015611d26575060405180807f537570706c6965720000000000000000000000000000000000000000000000008152506008019050604051809103902082604001516040516020018082805190602001908083835b602083101515611ce95780518252602082019150602081019050602083039250611cc4565b6001836020036101000a03801982511681845116808217855250505050505090500191505060405160208183030381529060405280519060200120145b15611f655785600360008363ffffffff1663ffffffff16815260200190815260200160002060000160006101000a81548163ffffffff021916908363ffffffff1602179055508160600151600360008363ffffffff1663ffffffff168152602001908152602001600020600001600c6101000a81548173ffffffffffffffffffffffffffffffffffffffff021916908373ffffffffffffffffffffffffffffffffffffffff16021790555086600360008363ffffffff1663ffffffff16815260200190815260200160002060000160046101000a81548163ffffffff021916908363ffffffff16021790555042600360008363ffffffff1663ffffffff16815260200190815260200160002060000160086101000a81548163ffffffff021916908363ffffffff1602179055508160600151600160008863ffffffff1663ffffffff16815260200190815260200160002060030160006101000a81548173ffffffffffffffffffffffffffffffffffffffff021916908373ffffffffffffffffffffffffffffffffffffffff160217905550600460008763ffffffff1663ffffffff16815260200190815260200160002081908060018154018082558091505090600182039060005260206000209060089182820401919006600402909192909190916101000a81548163ffffffff021916908363ffffffff160217905550508563ffffffff167fa5470ac012c6e9dc500e62b1d3de0de58db49b3ab7cfebbfb126d9abd854199b60405160405180910390a260019450505050612312565b60405180807f537570706c6965720000000000000000000000000000000000000000000000008152506008019050604051809103902083604001516040516020018082805190602001908083835b602083101515611fd85780518252602082019150602081019050602083039250611fb3565b6001836020036101000a038019825116818451168082178552505050505050905001915050604051602081830303815290604052805190602001201480156120cb575060405180807f436f6e73756d65720000000000000000000000000000000000000000000000008152506008019050604051809103902082604001516040516020018082805190602001908083835b60208310151561208e5780518252602082019150602081019050602083039250612069565b6001836020036101000a03801982511681845116808217855250505050505090500191505060405160208183030381529060405280519060200120145b1561230a5785600360008363ffffffff1663ffffffff16815260200190815260200160002060000160006101000a81548163ffffffff021916908363ffffffff1602179055508160600151600360008363ffffffff1663ffffffff168152602001908152602001600020600001600c6101000a81548173ffffffffffffffffffffffffffffffffffffffff021916908373ffffffffffffffffffffffffffffffffffffffff16021790555086600360008363ffffffff1663ffffffff16815260200190815260200160002060000160046101000a81548163ffffffff021916908363ffffffff16021790555042600360008363ffffffff1663ffffffff16815260200190815260200160002060000160086101000a81548163ffffffff021916908363ffffffff1602179055508160600151600160008863ffffffff1663ffffffff16815260200190815260200160002060030160006101000a81548173ffffffffffffffffffffffffffffffffffffffff021916908373ffffffffffffffffffffffffffffffffffffffff160217905550600460008763ffffffff1663ffffffff16815260200190815260200160002081908060018154018082558091505090600182039060005260206000209060089182820401919006600402909192909190916101000a81548163ffffffff021916908363ffffffff160217905550508563ffffffff167fa5470ac012c6e9dc500e62b1d3de0de58db49b3ab7cfebbfb126d9abd854199b60405160405180910390a260019450505050612312565b600094505050505b509392505050565b606060006060600260008563ffffffff1663ffffffff168152602001908152602001600020600001600260008663ffffffff1663ffffffff16815260200190815260200160002060030160009054906101000a900473ffffffffffffffffffffffffffffffffffffffff16600260008763ffffffff1663ffffffff168152602001908152602001600020600201828054600181600116156101000203166002900480601f01602080910402602001604051908101604052809291908181526020018280546001816001161561010002031660029004801561243c5780601f106124115761010080835404028352916020019161243c565b820191906000526020600020905b81548152906001019060200180831161241f57829003601f168201915b50505050509250808054600181600116156101000203166002900480601f0160208091040260200160405190810160405280929190818152602001828054600181600116156101000203166002900480156124d85780601f106124ad576101008083540402835291602001916124d8565b820191906000526020600020905b8154815290600101906020018083116124bb57829003601f168201915b505050505090509250925092509193909250565b600060405180807f4d616e7566616374757265720000000000000000000000000000000000000000815250600c0190506040518091039020600260008863ffffffff1663ffffffff16815260200190815260200160002060020160405160200180828054600181600116156101000203166002900480156125a45780601f106125825761010080835404028352918201916125a4565b820191906000526020600020905b815481529060010190602001808311612590575b50509150506040516020818303038152906040528051906020012014156127d557600080600081819054906101000a900463ffffffff168092919060010191906101000a81548163ffffffff021916908363ffffffff160217905550905085600160008363ffffffff1663ffffffff16815260200190815260200160002060000190805190602001906126389291906136b5565b5084600160008363ffffffff1663ffffffff168152602001908152602001600020600101908051906020019061266f9291906136b5565b5083600160008363ffffffff1663ffffffff16815260200190815260200160002060020190805190602001906126a69291906136b5565b5082600160008363ffffffff1663ffffffff16815260200190815260200160002060030160146101000a81548163ffffffff021916908363ffffffff160217905550600260008863ffffffff1663ffffffff16815260200190815260200160002060030160009054906101000a900473ffffffffffffffffffffffffffffffffffffffff16600160008363ffffffff1663ffffffff16815260200190815260200160002060030160006101000a81548173ffffffffffffffffffffffffffffffffffffffff021916908373ffffffffffffffffffffffffffffffffffffffff16021790555042600160008363ffffffff1663ffffffff16815260200190815260200160002060030160186101000a81548163ffffffff021916908363ffffffff160217905550809150506127da565b600090505b95945050505050565b6000816040516020018082805190602001908083835b60208310151561281e57805182526020820191506020810190506020830392506127f9565b6001836020036101000a03801982511681845116808217855250505050505090500191505060405160208183030381529060405280519060200120600260008763ffffffff1663ffffffff16815260200190815260200160002060020160405160200180828054600181600116156101000203166002900480156128d95780601f106128b75761010080835404028352918201916128d9565b820191906000526020600020905b8154815290600101906020018083116128c5575b5050915050604051602081830303815290604052805190602001201415612b2f57836040516020018082805190602001908083835b602083101515612933578051825260208201915060208101905060208303925061290e565b6001836020036101000a03801982511681845116808217855250505050505090500191505060405160208183030381529060405280519060200120600260008763ffffffff1663ffffffff16815260200190815260200160002060000160405160200180828054600181600116156101000203166002900480156129ee5780601f106129cc5761010080835404028352918201916129ee565b820191906000526020600020905b8154815290600101906020018083116129da575b5050915050604051602081830303815290604052805190602001201415612b2e57826040516020018082805190602001908083835b602083101515612a485780518252602082019150602081019050602083039250612a23565b6001836020036101000a03801982511681845116808217855250505050505090500191505060405160208183030381529060405280519060200120600260008763ffffffff1663ffffffff1681526020019081526020016000206001016040516020018082805460018160011615610100020316600290048015612b035780601f10612ae1576101008083540402835291820191612b03565b820191906000526020600020905b815481529060010190602001808311612aef575b5050915050604051602081830303815290604052805190602001201415612b2d5760019050612b34565b5b5b600090505b949350505050565b6002602052806000526040600020600091509050806000018054600181600116156101000203166002900480601f016020809104026020016040519081016040528092919081815260200182805460018160011615610100020316600290048015612be85780601f10612bbd57610100808354040283529160200191612be8565b820191906000526020600020905b815481529060010190602001808311612bcb57829003601f168201915b505050505090806001018054600181600116156101000203166002900480601f016020809104026020016040519081016040528092919081815260200182805460018160011615610100020316600290048015612c865780601f10612c5b57610100808354040283529160200191612c86565b820191906000526020600020905b815481529060010190602001808311612c6957829003601f168201915b505050505090806002018054600181600116156101000203166002900480601f016020809104026020016040519081016040528092919081815260200182805460018160011615610100020316600290048015612d245780601f10612cf957610100808354040283529160200191612d24565b820191906000526020600020905b815481529060010190602001808311612d0757829003601f168201915b5050505050908060030160009054906101000a900473ffffffffffffffffffffffffffffffffffffffff16905084565b60036020528060005260406000206000915090508060000160009054906101000a900463ffffffff16908060000160049054906101000a900463ffffffff16908060000160089054906101000a900463ffffffff169080600001600c9054906101000a900473ffffffffffffffffffffffffffffffffffffffff16905084565b600060089054906101000a900463ffffffff1681565b60608060606000806000600160008863ffffffff1663ffffffff168152602001908152602001600020600001600160008963ffffffff1663ffffffff168152602001908152602001600020600101600160008a63ffffffff1663ffffffff168152602001908152602001600020600201600160008b63ffffffff1663ffffffff16815260200190815260200160002060030160149054906101000a900463ffffffff16600160008c63ffffffff1663ffffffff16815260200190815260200160002060030160009054906101000a900473ffffffffffffffffffffffffffffffffffffffff16600160008d63ffffffff1663ffffffff16815260200190815260200160002060030160189054906101000a900463ffffffff16858054600181600116156101000203166002900480601f016020809104026020016040519081016040528092919081815260200182805460018160011615610100020316600290048015612f985780601f10612f6d57610100808354040283529160200191612f98565b820191906000526020600020905b815481529060010190602001808311612f7b57829003601f168201915b50505050509550848054600181600116156101000203166002900480601f0160208091040260200160405190810160405280929190818152602001828054600181600116156101000203166002900480156130345780601f1061300957610100808354040283529160200191613034565b820191906000526020600020905b81548152906001019060200180831161301757829003601f168201915b50505050509450838054600181600116156101000203166002900480601f0160208091040260200160405190810160405280929190818152602001828054600181600116156101000203166002900480156130d05780601f106130a5576101008083540402835291602001916130d0565b820191906000526020600020905b8154815290600101906020018083116130b357829003601f168201915b5050505050935095509550955095509550955091939550919395565b6001602052806000526040600020600091509050806000018054600181600116156101000203166002900480601f0160208091040260200160405190810160405280929190818152602001828054600181600116156101000203166002900480156131985780601f1061316d57610100808354040283529160200191613198565b820191906000526020600020905b81548152906001019060200180831161317b57829003601f168201915b505050505090806001018054600181600116156101000203166002900480601f0160208091040260200160405190810160405280929190818152602001828054600181600116156101000203166002900480156132365780601f1061320b57610100808354040283529160200191613236565b820191906000526020600020905b81548152906001019060200180831161321957829003601f168201915b505050505090806002018054600181600116156101000203166002900480601f0160208091040260200160405190810160405280929190818152602001828054600181600116156101000203166002900480156132d45780601f106132a9576101008083540402835291602001916132d4565b820191906000526020600020905b8154815290600101906020018083116132b757829003601f168201915b5050505050908060030160009054906101000a900473ffffffffffffffffffffffffffffffffffffffff16908060030160149054906101000a900463ffffffff16908060030160189054906101000a900463ffffffff16905086565b6060600460008363ffffffff1663ffffffff1681526020019081526020016000208054806020026020016040519081016040528092919081815260200182805480156133c757602002820191906000526020600020906000905b82829054906101000a900463ffffffff1663ffffffff168152602001906004019060208260030104928301926001038202915080841161338a5790505b50505050509050919050565b6000806000806133e1613735565b600360008763ffffffff1663ffffffff168152602001908152602001600020608060405190810160405290816000820160009054906101000a900463ffffffff1663ffffffff1663ffffffff1681526020016000820160049054906101000a900463ffffffff1663ffffffff1663ffffffff1681526020016000820160089054906101000a900463ffffffff1663ffffffff1663ffffffff16815260200160008201600c9054906101000a900473ffffffffffffffffffffffffffffffffffffffff1673ffffffffffffffffffffffffffffffffffffffff1673ffffffffffffffffffffffffffffffffffffffff1681525050905080600001518160200151826060015183604001519450945094509450509193509193565b6000809054906101000a900463ffffffff1681565b6000806000600481819054906101000a900463ffffffff168092919060010191906101000a81548163ffffffff021916908363ffffffff160217905550905085600260008363ffffffff1663ffffffff16815260200190815260200160002060000190805190602001906135849291906136b5565b5084600260008363ffffffff1663ffffffff16815260200190815260200160002060010190805190602001906135bb9291906136b5565b5083600260008363ffffffff1663ffffffff16815260200190815260200160002060030160006101000a81548173ffffffffffffffffffffffffffffffffffffffff021916908373ffffffffffffffffffffffffffffffffffffffff16021790555082600260008363ffffffff1663ffffffff16815260200190815260200160002060020190805190602001906136539291906136b5565b5080915050949350505050565b600060049054906101000a900463ffffffff1681565b608060405190810160405280606081526020016060815260200160608152602001600073ffffffffffffffffffffffffffffffffffffffff1681525090565b828054600181600116156101000203166002900490600052602060002090601f016020900481019282601f106136f657805160ff1916838001178555613724565b82800160010185558215613724579182015b82811115613723578251825591602001919060010190613708565b5b5090506137319190613786565b5090565b608060405190810160405280600063ffffffff168152602001600063ffffffff168152602001600063ffffffff168152602001600073ffffffffffffffffffffffffffffffffffffffff1681525090565b6137a891905b808211156137a457600081600090555060010161378c565b5090565b9056fea165627a7a72305820c1d0968767b5b57aa2344ad4b538e34dea9aa54cdbc63a6c1e4c9783aafa23a00029",
  "source": "// Created by Kaustubh\r\n\r\npragma solidity >=0.4.21 <0.6.0;\r\n\r\ncontract supplyChain {\r\n\r\n    uint32 public product_id = 0;   // Product ID\r\n    uint32 public participant_id = 0;   // Participant ID\r\n    uint32 public owner_id = 0;   // Ownership ID\r\n\r\n    struct product {\r\n        string modelNumber;\r\n        string partNumber;\r\n        string serialNumber;\r\n        address productOwner;\r\n        uint32 cost;\r\n        uint32 mfgTimeStamp;\r\n    }\r\n\r\n    mapping(uint32 => product) public products;\r\n\r\n    struct participant {\r\n        string userName;\r\n        string password;\r\n        string participantType;\r\n        address participantAddress;\r\n    }\r\n\r\n    mapping(uint32 => participant) public participants;\r\n\r\n    struct ownership {\r\n        uint32 productId;\r\n        uint32 ownerId;\r\n        uint32 trxTimeStamp;\r\n        address productOwner;\r\n    }  \r\n\r\n\r\n    mapping(uint32 => ownership) public ownerships; // ownerships by ownership ID (owner_id)\r\n    mapping(uint32 => uint32[]) public productTrack;  // ownerships by Product ID (product_id) / Movement track for a product\r\n\r\n    event TransferOwnership(uint32 indexed productId);\r\n\r\n    function addParticipant(string memory _name, string memory _pass, address _pAdd, string memory _pType) public returns (uint32) {\r\n        uint32 userId = participant_id++;\r\n        participants[userId].userName = _name;\r\n        participants[userId].password = _pass;\r\n        participants[userId].participantAddress = _pAdd;\r\n        participants[userId].participantType = _pType;\r\n\r\n        return userId;\r\n    }\r\n\r\n\r\n    function getParticipant(uint32 _participant_id) public view returns (string memory,address,string memory) {\r\n        return (participants[_participant_id].userName,participants[_participant_id].participantAddress,participants[_participant_id].participantType);\r\n    }\r\n\r\n\r\n    function addProduct(uint32 _ownerId,string memory _modelNumber,string memory _partNumber,string memory _serialNumber,uint32 _productCost) public returns (uint32) {\r\n\r\n        if(keccak256(abi.encodePacked(participants[_ownerId].participantType)) == keccak256(\"Manufacturer\")) {\r\n            uint32 productId = product_id++;\r\n            products[productId].modelNumber = _modelNumber;\r\n            products[productId].partNumber = _partNumber;\r\n            products[productId].serialNumber = _serialNumber;\r\n            products[productId].cost = _productCost;\r\n            products[productId].productOwner = participants[_ownerId].participantAddress;\r\n            products[productId].mfgTimeStamp = uint32(now);\r\n\r\n            return productId;\r\n        }\r\n        return 0;\r\n    }\r\n\r\n\r\n    modifier onlyOwner(uint32 _productId) {\r\n        require(msg.sender == products[_productId].productOwner,\"\");\r\n        _;\r\n    }\r\n\r\n\r\n    function getProduct(uint32 _productId) public view returns (string memory,string memory,string memory,uint32,address,uint32) {\r\n        return (products[_productId].modelNumber,products[_productId].partNumber,products[_productId].serialNumber,products[_productId].cost,products[_productId].productOwner,products[_productId].mfgTimeStamp);\r\n    }\r\n\r\n\r\n    function newOwner(uint32 _user1Id,uint32 _user2Id, uint32 _prodId) onlyOwner(_prodId) public returns (bool) {\r\n        participant memory p1 = participants[_user1Id];\r\n        participant memory p2 = participants[_user2Id];\r\n        uint32 ownership_id = owner_id++;\r\n\r\n        if(keccak256(abi.encodePacked(p1.participantType)) == keccak256(\"Manufacturer\") && keccak256(abi.encodePacked(p2.participantType))==keccak256(\"Supplier\")) {\r\n            ownerships[ownership_id].productId = _prodId;\r\n            ownerships[ownership_id].productOwner = p2.participantAddress;\r\n            ownerships[ownership_id].ownerId = _user2Id;\r\n            ownerships[ownership_id].trxTimeStamp = uint32(now);\r\n            products[_prodId].productOwner = p2.participantAddress;\r\n            productTrack[_prodId].push(ownership_id);\r\n            emit TransferOwnership(_prodId);\r\n\r\n            return (true);\r\n        }\r\n\r\n        else if(keccak256(abi.encodePacked(p1.participantType)) == keccak256(\"Supplier\") && keccak256(abi.encodePacked(p2.participantType))==keccak256(\"Supplier\")) {\r\n            ownerships[ownership_id].productId = _prodId;\r\n            ownerships[ownership_id].productOwner = p2.participantAddress;\r\n            ownerships[ownership_id].ownerId = _user2Id;\r\n            ownerships[ownership_id].trxTimeStamp = uint32(now);\r\n            products[_prodId].productOwner = p2.participantAddress;\r\n            productTrack[_prodId].push(ownership_id);\r\n            emit TransferOwnership(_prodId);\r\n\r\n            return (true);\r\n        }\r\n\r\n        else if(keccak256(abi.encodePacked(p1.participantType)) == keccak256(\"Supplier\") && keccak256(abi.encodePacked(p2.participantType))==keccak256(\"Consumer\")) {\r\n            ownerships[ownership_id].productId = _prodId;\r\n            ownerships[ownership_id].productOwner = p2.participantAddress;\r\n            ownerships[ownership_id].ownerId = _user2Id;\r\n            ownerships[ownership_id].trxTimeStamp = uint32(now);\r\n            products[_prodId].productOwner = p2.participantAddress;\r\n            productTrack[_prodId].push(ownership_id);\r\n            emit TransferOwnership(_prodId);\r\n\r\n            return (true);\r\n        }\r\n\r\n        return (false);\r\n    }\r\n\r\n\r\n    function getProvenance(uint32 _prodId) external view returns (uint32[] memory) {\r\n        return productTrack[_prodId];\r\n    }\r\n\r\n    function getOwnership(uint32 _regId)  public view returns (uint32,uint32,address,uint32) {\r\n        ownership memory r = ownerships[_regId];\r\n        return (r.productId,r.ownerId,r.productOwner,r.trxTimeStamp);\r\n    }\r\n\r\n\r\n    function authenticateParticipant(uint32 _uid,string memory _uname,string memory _pass,string memory _utype) public view returns (bool) {\r\n        if(keccak256(abi.encodePacked(participants[_uid].participantType)) == keccak256(abi.encodePacked(_utype))) {\r\n            if(keccak256(abi.encodePacked(participants[_uid].userName)) == keccak256(abi.encodePacked(_uname))) {\r\n                if(keccak256(abi.encodePacked(participants[_uid].password)) == keccak256(abi.encodePacked(_pass))) {\r\n                    return (true);\r\n                }\r\n            }\r\n        }\r\n\r\n        return (false);\r\n    }\r\n\r\n}   \r\n\r\n",
  "sourcePath": "D:/SupplyChainApp/SupplyChainApp/contracts/SupplyChain.sol",
  "compiler": {
    "name": "solc",
    "version": "0.5.0+commit.1d4f565a.Emscripten.clang"
  },
  "schemaVersion": "3.0.1",
  "updatedAt": "2023-02-21T07:03:12.938Z",
  "devdoc": {
    "methods": {}
  },
  "userdoc": {
    "methods": {}
  }
}